{
  "transactions": [
    {
      "hash": "0xfd05062b345df2bd51c614154ce3a48f396b3c57cadcf5c9fd639d375f077fc0",
      "transactionType": "CALL",
      "contractName": null,
      "contractAddress": "0x779877A7B0D9E8603169DdbD7836e478b4624789",
      "function": "transferAndCall(address,uint256,bytes)",
      "arguments": [
        "0x8103B0A8A00be2DDC778e6e7eaa21791Cd364625",
        "3000000000000000000",
        "0x00000000000000000000000000000000000000000000000000000000000025fa"
      ],
      "transaction": {
        "type": "0x02",
        "from": "0x182dcfa72618e4cf095e0e61ec69cd7bd246fa09",
        "to": "0x779877a7b0d9e8603169ddbd7836e478b4624789",
        "gas": "0x1b43f",
        "value": "0x0",
        "data": "0x4000aea00000000000000000000000008103b0a8a00be2ddc778e6e7eaa21791cd36462500000000000000000000000000000000000000000000000029a2241af62c00000000000000000000000000000000000000000000000000000000000000000060000000000000000000000000000000000000000000000000000000000000002000000000000000000000000000000000000000000000000000000000000025fa",
        "nonce": "0xbe",
        "accessList": []
      },
      "additionalContracts": [],
      "isFixedGasLimit": false
    }
  ],
  "receipts": [],
  "libraries": [],
  "pending": [
    "0xfd05062b345df2bd51c614154ce3a48f396b3c57cadcf5c9fd639d375f077fc0"
  ],
  "returns": {},
  "timestamp": 1709120108,
  "chain": 11155111,
  "multi": false,
  "commit": "17eec88"
}