{
  "transactions": [
    {
      "hash": "0xfd05062b345df2bd51c614154ce3a48f396b3c57cadcf5c9fd639d375f077fc0",
      "transactionType": "CALL",
      "contractName": null,
      "contractAddress": "0x779877A7B0D9E8603169DdbD7836e478b4624789",
      "function": "transferAndCall(address,uint256,bytes)",
      "arguments": [
        "0x8103B0A8A00be2DDC778e6e7eaa21791Cd364625",
        "3000000000000000000",
        "0x00000000000000000000000000000000000000000000000000000000000025fa"
      ],
      "transaction": {
        "type": "0x02",
        "from": "0x182dcfa72618e4cf095e0e61ec69cd7bd246fa09",
        "to": "0x779877a7b0d9e8603169ddbd7836e478b4624789",
        "gas": "0x1b43f",
        "value": "0x0",
        "data": "0x4000aea00000000000000000000000008103b0a8a00be2ddc778e6e7eaa21791cd36462500000000000000000000000000000000000000000000000029a2241af62c00000000000000000000000000000000000000000000000000000000000000000060000000000000000000000000000000000000000000000000000000000000002000000000000000000000000000000000000000000000000000000000000025fa",
        "nonce": "0xbe",
        "accessList": []
      },
      "additionalContracts": [],
      "isFixedGasLimit": false
    }
  ],
  "receipts": [
    {
      "transactionHash": "0xfd05062b345df2bd51c614154ce3a48f396b3c57cadcf5c9fd639d375f077fc0",
      "transactionIndex": "0x26",
      "blockHash": "0xa535cac02fa7c38c1c5b533d02379cf9fb42ac9b618ec51605e500346ea996a9",
      "blockNumber": "0x5219fe",
      "from": "0x182dCFA72618E4cf095E0e61Ec69cD7bD246fa09",
      "to": "0x779877A7B0D9E8603169DdbD7836e478b4624789",
      "cumulativeGasUsed": "0x35e8bf",
      "gasUsed": "0x12a4a",
      "contractAddress": null,
      "logs": [
        {
          "address": "0x779877A7B0D9E8603169DdbD7836e478b4624789",
          "topics": [
            "0xddf252ad1be2c89b69c2b068fc378daa952ba7f163c4a11628f55a4df523b3ef",
            "0x000000000000000000000000182dcfa72618e4cf095e0e61ec69cd7bd246fa09",
            "0x0000000000000000000000008103b0a8a00be2ddc778e6e7eaa21791cd364625"
          ],
          "data": "0x00000000000000000000000000000000000000000000000029a2241af62c0000",
          "blockHash": "0xa535cac02fa7c38c1c5b533d02379cf9fb42ac9b618ec51605e500346ea996a9",
          "blockNumber": "0x5219fe",
          "transactionHash": "0xfd05062b345df2bd51c614154ce3a48f396b3c57cadcf5c9fd639d375f077fc0",
          "transactionIndex": "0x26",
          "logIndex": "0x34",
          "removed": false
        },
        {
          "address": "0x779877A7B0D9E8603169DdbD7836e478b4624789",
          "topics": [
            "0xe19260aff97b920c7df27010903aeb9c8d2be5d310a2c67824cf3f15396e4c16",
            "0x000000000000000000000000182dcfa72618e4cf095e0e61ec69cd7bd246fa09",
            "0x0000000000000000000000008103b0a8a00be2ddc778e6e7eaa21791cd364625"
          ],
          "data": "0x00000000000000000000000000000000000000000000000029a2241af62c00000000000000000000000000000000000000000000000000000000000000000040000000000000000000000000000000000000000000000000000000000000002000000000000000000000000000000000000000000000000000000000000025fa",
          "blockHash": "0xa535cac02fa7c38c1c5b533d02379cf9fb42ac9b618ec51605e500346ea996a9",
          "blockNumber": "0x5219fe",
          "transactionHash": "0xfd05062b345df2bd51c614154ce3a48f396b3c57cadcf5c9fd639d375f077fc0",
          "transactionIndex": "0x26",
          "logIndex": "0x35",
          "removed": false
        },
        {
          "address": "0x8103B0A8A00be2DDC778e6e7eaa21791Cd364625",
          "topics": [
            "0xd39ec07f4e209f627a4c427971473820dc129761ba28de8906bd56f57101d4f8",
            "0x00000000000000000000000000000000000000000000000000000000000025fa"
          ],
          "data": "0x000000000000000000000000000000000000000000000000000000000000000000000000000000000000000000000000000000000000000029a2241af62c0000",
          "blockHash": "0xa535cac02fa7c38c1c5b533d02379cf9fb42ac9b618ec51605e500346ea996a9",
          "blockNumber": "0x5219fe",
          "transactionHash": "0xfd05062b345df2bd51c614154ce3a48f396b3c57cadcf5c9fd639d375f077fc0",
          "transactionIndex": "0x26",
          "logIndex": "0x36",
          "removed": false
        }
      ],
      "status": "0x1",
      "logsBloom": "0x0000001400000000000000000000000000000000000000020000000002000000000000000000800000000000000000000000000000000000000000200000000000000000000000000000000800000000000000000000000000002000000000000000000000000000400000000000000000000000400000000000001000000000000000000c000020000000000000800010000020000000000000000000080000000000000000000000000000000000000000000000000000010400000000000000000002000000000000000000000000000000000000000100000001000000000000000200000000000000000000000000000000000000000000000000000000",
      "type": "0x2",
      "effectiveGasPrice": "0xb6fba429"
    }
  ],
  "libraries": [],
  "pending": [],
  "returns": {},
  "timestamp": 1709120121,
  "chain": 11155111,
  "multi": false,
  "commit": "17eec88"
}